:020000040800F2
:10000000C86D00209D010008831B00089719000897
:10001000811B0008450300087D2100080000000046
:10002000000000000000000000000000291D000882
:10003000A903000800000000C11C00082B1D0008D7
:10004000B7010008B7010008B7010008B7010008B0
:10005000B7010008B7010008B7010008B7010008A0
:10006000B7010008B7010008B7010008B701000890
:10007000B7010008B7010008B7010008B701000880
:10008000B7010008B7010008B7010008B701000870
:10009000B7010008B7010008B7010008B701000860
:1000A000B7010008B7010008B7010008B701000850
:1000B000B7010008B7010008B7010008B701000840
:1000C000B7010008B7010008B7010008B701000830
:1000D000B7010008B7010008B7010008B701000820
:1000E000B7010008B7010008B7010008B701000810
:1000F000B7010008B7010008B7010008B701000800
:10010000B7010008B7010008B7010008B7010008EF
:10011000B7010008B7010008B7010008B7010008DF
:10012000B7010008B7010008B7010008B7010008CF
:10013000B7010008B7010008B7010008B7010008BF
:10014000B7010008B7010008B7010008B7010008AF
:10015000B7010008B7010008B7010008B70100089F
:10016000B7010008B7010008B7010008B70100088F
:10017000B7010008B7010008B7010008000000003F
:10018000B7010008B7010008DFF80CD000F0C8F88C
:1001900000480047454E0008C86D002006488047CB
:1001A00006480047FEE7FEE7FEE7FEE7FEE7FEE75C
:1001B000FEE7FEE7FEE7FEE7D51D0008890100081F
:1001C000002070472DE9F05F0546002092469B46CF
:1001D00088460646814640241BE02846414647465D
:1001E000224600F08CF853465A46C01A914110D36B
:1001F00011461846224600F073F82D1A67EB0108E5
:100200004F4622460120002100F06AF817EB000952
:100210004E41201EA4F10104DFDC484631462A4647
:100220004346BDE8F09F000000487047F4E700082F
:100230000649074A0868504343F2390210440860EF
:10024000400870470149086070470000E000002046
:100250006D4EC64110B5431A934209D283188818CF
:1002600003E010F8011D03F8011D521EF9D210BD64
:1002700040EA01039B0703D009E008C9121F08C028
:10028000042AFAD203E011F8013B00F8013B521EA8
:10029000F9D210BDD2B201E000F8012B491EFBD209
:1002A00070470022F6E710B513460A460446194681
:1002B000FFF7F0FF204610BD421C10F8011B00297B
:1002C000FBD1801A704730B504460020034600E099
:1002D0005B1C934203D2E05CCD5C401BF8D030BD88
:1002E000202A04DB203A00FA02F1002070479140F6
:1002F000C2F1200320FA03F3194390407047202AEB
:1003000004DB203A21FA02F00021704721FA02F3BF
:10031000D040C2F1200291400843194670470000C6
:10032000064C074D06E0E06840F0010394E8070042
:1003300098471034AC42F6D3FFF72AFF0CE90008C7
:100340002CE90008FEE7000010B5044600F056F95D
:10035000002020700BA001F0B7FF607800280FD0BC
:100360000B4C20680B490840B0F1005F08D10AA08F
:1003700001F0AAFF6068216881F308888047FEE7E2
:1003800010BD0000B9D8B1D5CEC4BCFE0D0A000026
:10039000000002080000FE2FD5FDB3A3D4CBD0D0BF
:1003A000D6D021200D0A000070470000064908B58C
:1003B00009684FF4FA52B1FBF2F14143009100BFDA
:1003C000491E0091FBD208BD0000002038B504464C
:1003D000006800F58050816941F4801181612068D6
:1003E00000F58050806900900120FFF7DFFF206852
:1003F000009900F58050816138BD00002DE9F04181
:10040000044621B14FF40060E060C000A060E069E4
:100410000025002861D028462368402619683A4AFA
:100420001140D4E902273A43024342F400700843E2
:10043000186020680768012000F0C2F92068076092
:100440002068466020684668012000F0B9F92068FD
:100450004660206885602068C560216888694FF61D
:100460004172104040F08000886120688669012058
:1004700000F0A6F9206886612068C5612068C5691A
:10048000012000F09DF92068C561226802F58052C4
:1004900090691E4908401E4901439161206800F59A
:1004A00080508569012000F08BF9206800F58050AC
:1004B00085612068174900F580500160206800F5CB
:1004C00080500568012000F07BF9206800F580501D
:1004D0000560A069012803D009E04FF480609BE724
:1004E000206800F58050C1690B4A1143C161606901
:1004F0000A4982880A640278D0F8010042EA0020A2
:100500004864BDE8F08100000F8120FF233FDEF842
:10051000040020028020C10240000100008002404F
:10052000002229B101291AD002291BD04FF44072B0
:100530000E490B6823F440730B600B6813430B6088
:100540000A6822F0F8020A600A68022303EBC0007E
:1005500002430A60086840F48030086070474FF436
:100560008072E5E74FF40072E2E70000103C0240C1
:100570001348016889050FD5016821F400710160F5
:10058000016841F400610160016821F400610160CB
:10059000016841F400710160016849050FD50168E7
:1005A00021F480610160016841F4805101600168BB
:1005B00021F480510160016841F48061016070475D
:1005C000003C024000B50B4987B088420ED800209D
:1005D00005900090052002900720039002200490CF
:1005E00005A9684600F03AFC002800D0012007B0B9
:1005F00000BD000000000E0800F0C4BC00F07ABC92
:100600002DE9F04116468846054600240F4F16E0B6
:1006100058F8242029680023022000F075FC10B14E
:100620000120BDE8F0812868016858F82400814263
:1006300001D00220F5E72868001D2860641CB44240
:1006400002D22868B842E3D90020EAE7FBFF0F088E
:1006500008490A6822F440720A600A6842F00402FB
:100660000A600A684FF4803343EA002002430A60BC
:1006700070470000103C0240064A136823F44073A0
:10068000136013681360136843F001031360017073
:1006900070470000103C0240084910B50C6824F473
:1006A00040740C600C6844F440740C600C6844F0B6
:1006B00001040C600260436010BD0000103C024069
:1006C000074A136823F440731360136843F480737C
:1006D0001360136843F0010313600180704700004A
:1006E000103C0240074A136823F4407313601368F8
:1006F00043F400731360136843F001031360016057
:1007000070470000103C024017490868C2061748AD
:1007100005D5C26942F01002C26110220A600A685F
:10072000920605D5C26942F00802C26120220A6021
:100730000A68520605D5C26942F00402C26140222D
:100740000A600A68120605D5C26942F00202C26157
:1007500080220A600A68920705D5C26942F0200229
:10076000C2610220086070470C3C02404033002008
:1007700070B5114904460020C86100F0FBFC064634
:100780000E4D09E0601C07D024B100F0F3FC801B83
:10079000A04201D9032070BD2868C003F2D42868A4
:1007A000C00701D001202860286810F0F200F2D0C4
:1007B000FFF7AAFF012070BD403300200C3C02402F
:1007C00070B5044600F0D6FC0546601C02D0044813
:1007D0000078044400F0CEFC401BA042FAD370BD68
:1007E000300000202DE9F04390F845400025012C11
:1007F0000DD04FF0010C80F845C0022480F8444031
:1008000044F2F4574FF000495E1E816217E0022067
:10081000BDE8F08301EB4514C4F80090C5EBC518A2
:1008200008EB480802EB8808C4E90178B54204D215
:1008300004F12008C4F80C8000E0E1606D1C9D42CA
:10084000E8D3026802F58052D16080F844C00021EC
:1008500080F845100846DBE72DE9F043914690F813
:1008600045200024012A0AD0012680F84560022292
:1008700080F844204FF4801C5D1EC1621BE0022002
:10088000BDE8F08301EB4412C2F800C0C4EBC4170A
:1008900007EB470809EB88079760C7691FB9176816
:1008A00047F440071760AC4203D202F12007D7603B
:1008B00000E0D160641C9C42E4D3026802F58052DF
:1008C000116180F84460002180F845100846D7E7A0
:1008D00010B590F84510012913D0012280F8452069
:1008E000022180F84410816A0C680023002C27DB69
:1008F0000C68E40518D5846B641C8463012C02D059
:1009000002E0022010BD016341630C68C4F30D4492
:10091000241FC463046BA4680464C96840F8281FDA
:1009200002774377002010BD0C68A40503D58263CD
:10093000C0E90C1302E0846B641C8463C9688162A3
:1009400000F8442F4370012010BD00002DE9FC4742
:100950004FF000060400B146009603D094F844001E
:1009600018B107E00120BDE8FC8784F84560204607
:1009700000F0E2F86648016841F4804101600068D7
:1009800000F4804001906348016821F40001016097
:100990000168226A11430160206800F580500168F7
:1009A00041F00101016000F0E5FB05464FF4FA77E4
:1009B00009E000BF00F0DEFB401BB84203D9032072
:1009C00004F8440F67E0206800F580500068C00715
:1009D000F0D12068006920F01C0500F01FFD4E4991
:1009E0004E4A0144914202D245F0080516E04C49B6
:1009F0004C4A0144914202D245F00C050EE04A49AE
:100A00004A4A0144914209D3494908444949884224
:100A100002D245F0040501E045F0100520680561AB
:100A20004FF400420021204600F0DCF90125A8BB6C
:100A3000FF20FFF7C5FE606888B300F09BFB80468F
:100A400041F288376A460121204600F0C3F800F0E1
:100A500091FBA0EB0800B84217D800984007F1D5E9
:100A60004FF480520021204600F0BCF9B0B900F0EC
:100A700081FB80466A460121204600F0ABF800F079
:100A800079FBA0EB0800B8420AD901212046FFF704
:100A9000B5FC04F8445F0320667064E724E018E0C6
:100AA00000988006E6D56A461021204600F092F8AC
:100AB000D0B90098410703D54FF40061E16000E030
:100AC000E660800701D5A66019E04FF48040A06081
:100AD00015E0E068A168C00840EA510082B2002138
:100AE000204600F07FF930B101212046FFF786FC57
:100AF00084F8445036E740F6FF70FFF761FE494640
:100B00002046FFF77BFC84F8445000202BE70000D0
:100B1000443802400438014000D3CEFEC0E1E40076
:100B200040F1E9FD40787D0100796CFC005A6202D9
:100B3000001F0AFA80F0FA02F0B50068204987B079
:100B400088423BD11F480024016841F000710160D8
:100B5000016801F000710591016841F08061016058
:100B6000016801F080610591016841F00061016058
:100B70000068022500F0006005903220CDE90005F4
:100B800002AA03260B2782E8D00069460E4800F02F
:100B90000FFA8620CDE9000502AA694682E8D00056
:100BA0000A4800F005FA4FF4D040CDE9000502AA4A
:100BB000694682E8D000064800F0FAF907B0F0BDB7
:100BC000008002403038024000080240000002402D
:100BD000001802402DE9F047044690F84400914681
:100BE00082281DD0822084F84400226810694FF6C4
:100BF000FF7500F01C03208A05EAC02018434FF45B
:100C0000F86303EA8111014321F0020040F001057D
:100C1000156100F0AFFA064601274FF4803810E066
:100C20000220BDE8F08700BF00F0A4FA801B404519
:100C300005D304F8447F002060700320F1E72068AA
:100C40000569E807F0D12068406981B2C9F8001051
:100C500084F844700020E4E7F8B5044690F84500B5
:100C6000012839D0012584F84550022084F8440039
:100C700020680026016841F00801016020680068D2
:100C800000902846FFF792FB2168009808602068D2
:100C9000016841F0040101602068006800900120B3
:100CA000FFF784FB2168009808602046FFF78EFB61
:100CB000206800F58050816941F40051816120680D
:100CC00000F58050816941F00201816184F844504F
:100CD00084F845600020F8BD0220F8BDF0B590F81A
:100CE00045200023012A11D0012780F845700222F7
:100CF00080F84420002459B1C66A3268002A0ADA12
:100D0000122100F8441F44700120F0BD0220F0BD04
:100D100000F8447FF7E740F2F455A9420BD9B1FB44
:100D2000F5FCB1FBF5F205FB1C1CBCF1000F00D07B
:100D3000521C012A43D1326842F040523260C26AEA
:100D4000C1F30C015160C16A0A6842F000420A60B6
:100D5000C16AC968C16234E0D6F800C02CF0405CBA
:100D6000C6F800C033B9C66AD6F800C04CF0805C43
:100D7000C6F800C0C66A7560561EB34214D1C66A72
:100D8000D6F800C04CF0005CC6F800C0C2F1010605
:100D9000C6EBC61606EB4606D0F82CC001EB86065D
:100DA000C6F30C06CCF80460C66AD6F800C04CF056
:100DB000004CC6F800C0C66A5B1CF668C662934267
:100DC000CAD3016801F580514A69520705D504224A
:100DD0004A61016801F580514C6000F8447F44701D
:100DE0000020F0BD2DE9F041044690F8440042286F
:100DF0001ED0422084F84400236818694FF6FF761D
:100E000000F01C05208A06EAC02028434FF4F8654C
:100E100005EA8111014390B241F003055861206851
:100E2000056100F0A7F9064601274FF4803810E06D
:100E30000220BDE8F08100BF00F09CF9801B404516
:100E400005D304F8447F002060700320F1E7206898
:100E50000569E807F0D184F84470EAE72DE9F04726
:100E6000044622480F46017E01290AD0012180460E
:100E700001764CF250394846FFF77AFC020003D065
:100E80002FE00220BDE8F0874FF0FF303860206887
:100E9000174D012801D0A6681CE0207C6168FFF78F
:100EA000D7FB4846FFF764FC0246286820F00400A0
:100EB000286014E0217C3046FFF732FB4846FFF7FC
:100EC00057FC0200286820F0FA00286001D03E603C
:100ED00005E0761CD4E902100844B042EAD8FFF7D6
:100EE00047FB002188F818101046CBE7403300205C
:100EF000103C02400348016841F0004101600020BD
:100F000070470000103C02402DE9F0471B4E05469B
:100F10001446307E1F468946012808D001203076CD
:100F20004CF250384046FFF723FC18B114E0022081
:100F3000BDE8F0879DB1012D16D0022D19D02246B3
:100F40003B464846FFF7A8FB4046FFF711FC0C491B
:100F50000A6822F001020A6000213176E8E7E1B276
:100F60004846FFF789FBEFE7A1B24846FFF7A8FB29
:100F7000EAE721464846FFF7B5FBE5E740330020A6
:100F8000103C0240074900200A68002A09DA054A95
:100F9000054B0C3A1360054B13600968002900DA11
:100FA00001207047103C024023016745AB89EFCD1B
:100FB0002DE9F84FDFF87CB100224FF001084FF027
:100FC000030A4FF00F090BF1040E00BF0B6808FA7B
:100FD00002F42340A3426ED14D68022D01D0122DA0
:100FE0000ED1D50800EB850CDCF820505607F70E23
:100FF00009FA07F6B5430E69BE402E43CCF82060CF
:10100000066855000F790AFA05FC07F0030726EA7F
:101010000C06AF40374307604E68012E05D0022E04
:1010200003D0112E01D0122E0ED18668CF6826EA89
:101030000C06AF40374387604668A6430C79C4F37B
:101040000014944034434460C6688C6826EA0C0659
:10105000AC403443C4604C68E40065D5364C256828
:1010600045F480452560246822F0030504F480449B
:101070000094324C2E19D6F8084895072F0F09FA1C
:1010800007F5AC432E4DA84201D1002524E02D4D9B
:10109000A84201D101251FE02B4DA84201D1022514
:1010A0001AE02A4DA84201D1032515E0284DA84297
:1010B00002D1042510E037E0264DA84201D10525D4
:1010C0000AE0254DA84201D1062505E0234DA8429E
:1010D00001D1072500E00825BD402543C6F8085882
:1010E000DBF800405D464E689C43F60300D51C4388
:1010F0002C60DEF8004075464E689C43B60300D570
:101100001C432C600B4D08352C684E689C43F6023E
:1011100000D51C432C60074D0C352C684E689C4351
:10112000B60200D51C432C60521C102AFFF44EAFAF
:10113000BDE8F88F003C01404438024000300140D7
:10114000000002400004024000080240000C02407F
:10115000001002400014024000180240001C02402F
:101160000069084000D0012070470AB181617047D2
:101170000904FBE701488068704700003000002048
:101180000248816802781144816070473000002075
:101190000B4810B5016841F400710160016841F429
:1011A00080610160016841F480710160032000F0FA
:1011B0008BF8002000F006F800F024F8002010BDA5
:1011C000003C024070B50D4D04464FF47A7128780A
:1011D000B1FBF0F00A490968B1FBF0F000F00FFB39
:1011E00048B9102C07D200222146501E00F04CF8BE
:1011F00000206C6070BD012070BD00003000002038
:10120000000000201F4808B5016841F480410160DA
:10121000006800F4804000901A48001F016841F007
:1012200080510160006800F080500090032000F0C1
:101230004BF8002211466FF00B0000F025F8002259
:1012400011466FF00A0000F01FF8002211466FF0FF
:10125000090000F019F800221146501F00F014F8A0
:1012600000221146101F00F00FF800221146901EB8
:1012700000F00AF80022BDE808401146501E00F0B8
:1012800003B8000044380240F0B40E4B1B680C4613
:10129000C3F30223C3F10705042D00D90425191D4A
:1012A000072901D2002300E0DB1E012606FA05F122
:1012B000491E214099409E40761E16403143F0BCA5
:1012C00000F060BC0CED00E0064900F00702086881
:1012D0004FF6FF03184040EA0220034A104308601B
:1012E000704700000CED00E00000FA052DE9F04722
:1012F0000E46050065D0DFF81481D8F80000F7B27B
:1013000000F00F00B04207D288F80070D8F8000053
:1013100000F00F00B04254D128683D4C810712D52F
:10132000400703D5206840F4E0502060287800078B
:1013300003D5206840F4604020602068A96820F050
:10134000F000084320602878C0072DD03049686835
:101350000839012812D0022813D0032811D00968B7
:10136000890700292DDA216821F00301014321605A
:10137000FFF700FF814641F2883A0EE009688903D1
:10138000EFE709688901ECE7FFF7F4FEA0EB09013C
:10139000514502D90320BDE8F0872068696800F054
:1013A0000C00B0EB810FEFD1D8F80010404601F0EF
:1013B0000F01B14207D90770006800F00F00B0427A
:1013C00001D00120E7E72878400705D52068E968C3
:1013D00020F4E050084320602878000706D52068F4
:1013E000296920F4604040EAC100206000F03CF828
:1013F0002168084AC1F30311515CC84006490860DE
:101400000020FFF7DFFE0020C5E70000003C02409F
:101410000838024038E60008000000200148006853
:101420007047000000000020044805490068096872
:10143000044AC1F38221515CC8407047000000207B
:101440000838024048E60008044805490068096871
:10145000044AC1F34231515CC8407047000000208B
:101460000838024048E60008154810B5006810F03A
:101470000C02144813D04110042A0FD0082A0ED1B0
:101480000F4C241F2268236802F03F025B0207D53D
:101490002068C0F38810A0FB010106E0084610BDDB
:1014A0002168C1F38811A1FB00010023FEF78AFE29
:1014B0002168C1F30141491C4900B0FBF1F010BDA6
:1014C000083802400024F4002DE9F84F050076D0DA
:1014D0002878DFF8F8B2BE4CC00749D0DBF800101E
:1014E0005846C1F38101012908D00068C0F381008A
:1014F00002280AD1201D0068400206D5206880031A
:1015000036D568680028E2D032E06868B0F5803FE0
:1015100010D0B0F5A02F206810D020F480302060CB
:10152000206820F4802020606868A0B1FFF722FEC8
:1015300006460CE0206840F48030F4E740F4802058
:101540002060F7E7FFF716FE801B642873D8206839
:101550008003F7D50CE0FFF70DFE064605E000BF5F
:10156000FFF708FE801B6428F0D820688003F7D4BA
:101570002878DFF8608280074FF000093ED5DBF85D
:101580000010584611F00C0F09D00068C0F381001C
:1015900002280BD18D48001F0068400206D4206845
:1015A000800715D5E868012809D111E0E868B8B1CD
:1015B0000120C8F80000FFF7DDFD064605E002E166
:1015C000FFF7D8FD801B0228C0D820688007F7D518
:1015D0002068296920F0F80040EAC10020600DE091
:1015E000C8F80090FFF7C6FD064604E0FFF7C2FD0D
:1015F000801B02281FD820688007F7D428780007AE
:1016000022D5724E744869696C3671B1012101604E
:10161000FFF7B0FD074604E0FFF7ACFDC01B022852
:1016200009D830688007F7D50EE0C0F80090FFF7C2
:10163000A1FD074605E083E0FFF79CFDC01B0228E3
:101640007ED830688007F7D42878400768D5DFF85F
:101650007CA100270AF1380ADAF80000C0000BD498
:10166000DAF8001041F08051CAF80010DAF80000F2
:10167000012700F080500090584E3068C00510D40B
:10168000306840F480703060FFF774FD009005E032
:10169000FFF770FD0099401A022851D83068C00544
:1016A000F6D54A4EA868683601280FD0052830685C
:1016B00010D020F001003060306820F0040030606D
:1016C000A868B8B1FFF756FD00900FE0306840F011
:1016D0000100F4E740F004003060F7E7FFF74AFD4F
:1016E0000099411A41F28830814264D830688007FD
:1016F000F4D50EE0FFF73EFD009007E0FFF73AFD5E
:101700000099411A41F28830814254D830688007EC
:10171000F4D42FB1DAF8001021F08051CAF800108B
:10172000A869C0B3DBF80010C1F3810102294AD0D7
:101730000228484607D0C8F86000FFF71BFD00E00C
:1017400039E005463AE04746C8F86000FFF712FD69
:10175000064604E0FFF70EFD801B02282BD8206808
:101760008001F7D4D5E907010843A96A1C4A490852
:1017700002EB01416A6A41EA8211084395F82C1094
:1017800040EA01611148001F016001203866FFF73F
:10179000F1FC054605E014E0FFF7ECFC401B0228D5
:1017A00009D820688001F7D50BE000BFFFF7E2FC05
:1017B000401B022802D90320BDE8F88F2068800171
:1017C000F4D40020F8E70120F6E7000008380240D2
:1017D0000038024000004742800E4742007000403F
:1017E0000000FFFF4FF0E0210428086903D020F03B
:1017F00004000861704740F00400FAE7704710B534
:10180000401EB0F1807F01D3012010BD4FF0E024D5
:1018100060610F21601700F0B5F90020A06107207A
:101820002061002010BD10B5FFF7E8FF10BD70B5B6
:10183000040004D094F83900002510B106E001201E
:1018400070BD84F83850204600F022F8242084F837
:1018500039002068C16821F40051C160204600F0C1
:1018600005FB2068016921F490410161206841690C
:1018700021F02A0141612068C16841F40051C16032
:10188000E563202084F8390084F83A00002070BD18
:1018900000B500680E4987B0884217D10D4801682D
:1018A00041F0100101600068694600F010000590E9
:1018B0004FF4C060009002200190012002900320AC
:1018C0000390072004900448FFF772FB07B000BDA7
:1018D0000010014044380240000002402DE9F84366
:1018E000044690F839001F4616460D46202850D170
:1018F000A5B19EB194F8380001284AD0012084F89F
:1019000038004FF00008C4F83C80212084F83900EA
:10191000FFF730FCA6848146E68426E00120BDE87E
:10192000F883E08C401EE084A0684B46B0F5805FF1
:101930004FF000024FF080012046009703D000F0E6
:10194000EBFBE8B90DE000F0E7FBC8B92888216897
:10195000C0F308004860206908B16D1C05E0AD1CAB
:1019600003E0216815F8010B4860E08C0028D8D10D
:101970004B46002240212046009700F0CDFB08B1E5
:101980000320CCE7202084F8390084F83880002038
:10199000C5E70220C3E7FEE770B5224886B0002401
:1019A000016841F004010160016801F00401059142
:1019B000016841F080010160016801F0800105913A
:1019C000016841F001010160016801F00101059128
:1019D000016841F008010160016801F0080105910A
:1019E000016841F04001016000680F4E00F04000C6
:1019F0000590012208213046FFF7B7FB0125CDE90C
:101A00000054694609480294FFF7D2FA0820CDE94C
:101A100000050320CDE9024069463046FFF7C8FAC9
:101A200006B070BD30380240000C02400000024099
:101A3000FEB5374CC023A821237061708922A270A3
:101A40000220E070251DFF2028706870A870002714
:101A50002E1DEF7033707170B2700120F07003F0C2
:101A6000E1F92068E17803BA0A0603F47F4342EA09
:101A7000032203BA00BA03F47F03084342EA1322A5
:101A8000A4F10C0142EA106008602868E97803BA02
:101A90000A0603F47F4342EA032203BA00BA03F4BE
:101AA0007F03084342EA1322A4F1080142EA1060CE
:101AB00008603068F17803BA0A0603F47F4342EA0B
:101AC000032203BA03F47F0300BA42EA1322084355
:101AD00042EA1060211F231F08600E480E4900973C
:101AE000CDE901101A1F111F0C4803F01BFE0B4813
:101AF00004F032F8094890F829004007074803D558
:101B0000BDE8FE4004F082B8BDE8FE4004F02AB80B
:101B100024000020E934000885360008280200204F
:101B200010B5034801F0F2FDBDE8104005F022BBFE
:101B3000280200200D4810B50B4901604FF4E13137
:101B40004160002181600C22C160C0E90412816102
:101B5000C161FFF76CFE002805D0BDE810405021A0
:101B600003A000F0AFBB10BD00100140E801002051
:101B70002E2E5C5372635C75736172742E63000069
:101B8000FEE770470907090E002806DA00F00F008B
:101B900000F1E02080F8141D704700F1E02080F88B
:101BA0000014704770B50C460646014615461CA049
:101BB00000F08AFB21461EA000F086FB204C6570D9
:101BC0000DB120A000E022A000F07EFB607801258E
:101BD000012806D0092221A13046FEF774FB88B106
:101BE00018E0FEF709FD204EC4F802601FA000F0C7
:101BF0006BFB3046FEF7E6FC60B9257022A000F0D2
:101C000063FB07E0257027A000F05EFB4FF000604B
:101C1000C4F802002078002800D0094870BD0000F8
:101C2000B4F2BFAACEC4BCFE20202573200D0A004A
:101C3000B4F2BFAAC4A3CABD20202573200D0A0098
:101C400004000020D0B4CEC4BCFE0D0A0000000089
:101C5000B6C1CEC4BCFE0D0A00000000666C617304
:101C6000682E62696E00000000000208BFAACABCAC
:101C7000B2C1B3FD466C6173682020CAB1BCE4BD3B
:101C8000CFB3A4200D0A000057726974652046691D
:101C90006C6520496E697420537563636573200D0C
:101CA0000A000000526561642046696C6520496E37
:101CB000697420537563636573200D0A000000008A
:101CC0007047000070B50E460446154611460EA03A
:101CD00000F0FAFA207818B100204FF001620BE012
:101CE0004FF0FF3070BD09783154401CD4F8021019
:101CF00080B2491CC4F80210A842F3DAD4F80210EA
:101D00009142F0D370BD0000B6C1C8A1CEC4BCFEE4
:101D1000CAFDBEDD20B6C1C8A1B3A4B6C8A3BA200F
:101D2000256C64200D0A0000704710B5FFF728FAF3
:101D3000BDE81040FFF777BD30B5244893B00025CB
:101D4000016841F080510160006800F080501190FE
:101D50001F48016841F4804101600068022400F4DA
:101D60008040119001200090000401908001CDE995
:101D7000064008AA0420A82182E813000B906846B8
:101D8000FFF7A2FB00B1FEE70CA90F2081E83100AC
:101D90004FF4A0500F904FF48050109005210CA8E4
:101DA000FFF7A4FA00B1FEE7FFF738FB4FF47A71B2
:101DB000B0FBF1F0FFF723FD0420FFF713FD002235
:101DC0001146501EFFF760FA13B030BD4038024094
:101DD000007000401048016841F4700101600F4834
:101DE000016841F0010101600C4A002108321160D4
:101DF00002680B4B1A400260031D0A4A1A6002680F
:101E000022F48022026005480C3001600249580625
:101E1000803908607047000088ED00E0003802401B
:101E2000FFFFF6FE1030002470B59AB00E461C4637
:101E3000154664216846FEF734FA632C00D9632402
:101E4000224629466846FEF705FA6A46314602A050
:101E500000F03AFA1AB070BD5446545020657272C0
:101E60006F723A2025642028257329002DE9F0415E
:101E700004460068016921F44052E16811430161A0
:101E80002168C86849F20C6290432369A268E56939
:101E90001A4363692B431A430243CA6021684869A5
:101EA00020F44072A06910434861E1696425B1F5EE
:101EB000004F9748974A21684FF032083FD091422F
:101EC00001D081427CD1FFF7BFFA00EBC00101EBEA
:101ED000001061688900B0FBF1F6FFF7B5FA00EB7E
:101EE000C00101EB001061688900B0FBF1F0B0FBAC
:101EF000F5F06FF01801484306EB800108EB011084
:101F0000B0FBF5F000F0F006FFF79EFA00EBC00121
:101F100001EB001061688900B0FBF1F0B0FBF5F057
:101F200006EB0016FFF790FA00EBC00101EB001082
:101F300061688900B0FBF1F7FFF786FAD2E09142C1
:101F400001D081423DD1FFF77FFA00EBC00101EBE8
:101F5000001061684900B0FBF1F0B0FBF5F006013C
:101F6000FFF772FA00EBC00101EB00106168490055
:101F7000B0FBF1F7FFF768FA00EBC00101EB0010CE
:101F800061684900B0FBF1F0B0FBF5F06FF01801AB
:101F9000484307EB800108EBC100B0FBF5F000F00F
:101FA000F80006EB4006FFF74FFA00EBC00101EB2B
:101FB000001061684900B0FBF1F7FFF745FA3CE01B
:101FC00055E0FFF731FA00EBC00101EB001061684A
:101FD0004900B0FBF1F0B0FBF5F00601FFF724FA81
:101FE00000EBC00101EB001061684900B0FBF1F7A4
:101FF000FFF71AFA00EBC00101EB0010616849001D
:10200000B0FBF1F0B0FBF5F06FF01801484307EBBF
:10201000800108EBC100B0FBF5F000F0F80006EB22
:102020004006FFF701FA00EBC00101EB0010616808
:102030004900B0FBF1F7FFF7F7F900EBC00101EB46
:10204000001061684900B0FBF1F0B0FBF5F06FF0F3
:102050001801484307EB800108EBC100B0FBF5F025
:1020600000F00700216830448860BDE8F081FFF788
:10207000DBF900EBC00101EB001061688900B0FBE7
:10208000F1F6FFF7D1F900EBC00101EB0010616838
:102090008900B0FBF1F0B0FBF5F06FF01801484398
:1020A00006EB800108EB0110B0FBF5F000F0F00644
:1020B000FFF7BAF900EBC00101EB0010616889007D
:1020C000B0FBF1F0B0FBF5F006EB0016FFF7ACF952
:1020D00000EBC00101EB001061688900B0FBF1F773
:1020E000FFF7A2F900EBC00101EB00106168890065
:1020F000B0FBF1F0B0FBF5F06FF01801484307EBCF
:10210000800108EB0110B0FBF5F000F00F00A9E72B
:1021100000140140001001402DE9F0419846174697
:102120000E460446069D1DE0681C1BD02DB1FFF72E
:1021300021F8A0EB0800A84214D92068C16821F456
:10214000D071C1602068416921F001014161202006
:1021500084F8390084F83A00002084F8380003201D
:10216000BDE8F0812068006836EA000004D0002055
:10217000B842D9D00020F3E70120F9E7FEE70000DC
:1021800000B50A4885B090F82910C9070BD0001D8A
:1021900002F092F9024606A1684600F0BDF86946D1
:1021A00004A000F091F805B000BD00002802002056
:1021B0002573000053746174696320495020616481
:1021C00064726573733A2025730D0A002DE9F0419E
:1021D0000D460446498914A000F076F820784FF0A7
:1021E000FF37C0B16889810700D0012101EB90065B
:1021F000D4F8021013A000F067F83246A01C6968FA
:10220000FEF7FEF9D4F8021048B116A000F05CF811
:102210003846BDE8F0811CA000F056F8F8E720A091
:1022200000F052F80020F4E7D0B4CEC4BCFECAFDE2
:10223000BEDD2020CAFDBEDDB3A4B6C820256C6477
:10224000200D0A00BFAACABCD0B4464C4153482056
:1022500020B5D8D6B720A3BA305825303858200D2D
:102260000A000000D0B4464C41534820CAA7B0DC55
:1022700020B3F6B4EDB5D8D6B720A3BA2030582590
:10228000303858200D0A0000D0B4CEC4BCFE202047
:10229000C3BBD3D0B3F5CABCBBAF200D0A0000004E
:1022A000D0B4464C415348B3C9B9A62020CFC2D2BE
:1022B000BBB4CEB5D8D6B720A3BA305825303858DD
:1022C000200D0A00FEE700000FB4054B10B503A96E
:1022D000044A029800F044F810BC5DF814FB0000BA
:1022E00031370008E40000200FB41CB5024600207E
:1022F00007AC00290BD0491ECDE90021054B6A46E9
:102300002146069800F02CF8009A002111701CBCA0
:102310005DF814FBC32700080FB4084B10B504A9DF
:1023200002AA039800F01CF8044602A9002000F05D
:1023300053FA204610BC5DF814FB0000D9270008B2
:1023400002E008C8121F08C1002AFAD1704770477E
:10235000002001E001C1121F002AFBD170470000DC
:102360002DE9FF4F8DB00F460546002606E02528D3
:102370000BD0DDE90F1290476D1C761C28780028E1
:10238000F5D111B03046BDE8F08F0024A246A14639
:102390000122EC4900E0044315F8013F203B02FA1A
:1023A00003F00842F7D128782A2810D06FF02F02C6
:1023B0002878A0F13001092914D80AEB8A0102EB30
:1023C000410144F0020400EB010A6D1CF0E701CF6B
:1023D0005FEA000A03D544F40054CAF1000A44F04D
:1023E00002046D1C28782E2817D115F8010F44F02F
:1023F00004042A280ED06FF02F022878A0F13001B3
:1024000009290AD809EB890102EB410100EB010916
:102410006D1CF2E757F8049B6D1C28786C280FD0D0
:1024200006DC4C2817D068280DD06A2814D104E0A7
:10243000742810D07A280FD10DE044F400140AE07B
:1024400044F4801401E044F440146978814202D1DC
:1024500004F580146D1C6D1C2A786E2A1FD00CDCCC
:10246000632A31D004DC002A8BD0582A11D1A3E092
:10247000642A68D0692A0CD165E0732A2ED004DC66
:102480006F2A73D0702A04D19BE0752A6FD0782A06
:102490006ED01046DDE90F129047761C50E1C4F370
:1024A0000250022806D0032809D0042801CF09D001
:1024B000066045E101CFF117C0E9006140E101CFBD
:1024C00006803DE106703BE117F8040B8DF8000033
:1024D00000208DF80100EB46012003E057F804BB13
:1024E0004FF0FF3061074FF0000102D40DE008F11A
:1024F0000101884649450FDA8045F8DB1BF80810D2
:102500000029F4D108E008F1010188468142FADB94
:102510001BF808100029F6D1DDE90F23AAEB08000B
:102520008146214600F036F9304400EB080604E00D
:10253000DDE90F121BF8010B9047B8F10108F7D243
:1025400021464846F7E00A21C4F302534FF0000B3E
:102550000891022B04D001CFC117032B09D00AE048
:10256000FF1D27F00707F7E8020108E032E01FE04F
:1025700020E000B2C117042B01D140B2C117031EE5
:1025800071F1000307DA4FF0000CD0EB0C006CEB9C
:1025900001012D2302E0230504D52B238DF82430DF
:1025A000012303E0E30701D02023F7E7984658E032
:1025B0000A2110E010210EE010204FF0000B0890CF
:1025C0000CE010214FF0000B44F004044FF0080918
:1025D000089103E008214FF0000B0891C4F3025367
:1025E000022B04D001CF0021032B06D006E0FF1DF3
:1025F00027F00707F7E8020103E080B2042B00D1BF
:10260000C0B24FF0000823072BD5702A07D0DDF8A1
:1026100020C08CF0100C5CEA0B0C05D00EE04023BF
:102620008DF82430012308E050EA010306D030235E
:102630008DF824308DF8252002239846DDF820C03F
:102640008CF0080C5CEA0B0C0BD150EA010301D1B1
:10265000630706D530238DF824304FF00108A9F127
:102660000109582A04D038A20B9208AA0A920BE05A
:102670003AA2F9E75B46089AFDF7A4FD0B9B9B5C29
:102680000A9A521E0A92137050EA0102F2D10A9875
:10269000ADEB000000F1200B600702D524F480347C
:1026A00001E04FF00109D94502DDA9EB0B0000E084
:1026B000002000EB0B0141440890AAEB010AE00363
:1026C00006D4DDE90F232146504600F063F80644A6
:1026D0004FF0000908E009A911F80900DDE90F121F
:1026E000904709F10109761CC145F4DBE0030CD5E4
:1026F000DDE90F232146504600F04CF8064404E083
:10270000DDE90F1230209047761C0899481E08908A
:102710000029F5DC08E00A980A990078491C0A911A
:10272000DDE90F129047761CBBF10001ABF1010B04
:10273000F1DC21465046DDE90F2300F019F806448C
:102740006D1C1BE609280100303132333435363731
:1027500038396162636465660000000030313233ED
:10276000343536373839414243444546000000008D
:102770002DE9F041044600251E461746880404D47E
:1027800005E039462020B0476D1C641EF9D5284667
:10279000BDE8F0812DE9F041044600251E46904633
:1027A000C80301D5302700E02027880404D505E0C0
:1027B00041463846B0476D1C641EF9D52846BDE831
:1027C000F0814A68002A06D00A68531C0B6010701A
:1027D0004868401E486070470A68531C0B601070C0
:1027E0007047000070B50A4C0025A5822561A068DD
:1027F00010B103F0C1FEA5600021064804F0D8FD29
:102800006068002803D0216849688847656070BD0A
:102810009C69002079DB000870B505460C468807E6
:1028200006D006A34FF4B67210A118A0FFF74CFD16
:10283000A86800682060A868046070BD2E2E2F4D27
:102840006964646C6577617265732F54686972643A
:102850005F50617274792F4C7749502F7372632FD8
:10286000636F72652F6D656D702E63006D656D70A1
:102870005F667265653A206D656D2070726F706578
:10288000726C7920616C69676E6564004173736571
:102890007274696F6E2022257322206661696C65EF
:1028A00064206174206C696E6520256420696E2047
:1028B00025730A0010B580680468002C0CD02168CC
:1028C0000160A00706D005A34FF48C720FA118A0D9
:1028D000FFF7FAFC204610BD002010BD2E2E2F4D14
:1028E0006964646C6577617265732F54686972649A
:1028F0005F50617274792F4C7749502F7372632F38
:10290000636F72652F6D656D702E63006D656D7000
:102910005F6D616C6C6F633A206D656D70207072D5
:102920006F7065726C7920616C69676E6564000018
:10293000417373657274696F6E202225732220665D
:1029400061696C6564206174206C696E6520256422
:1029500020696E2025730A0070B5094D06460024D3
:1029600004EB440005EBC000017D29B18068B04252
:1029700002D1204600F036F9641C0A2CF0DB70BD51
:102980009C6800202DE9F74F84B04FF00A0B00241B
:102990000646DA465F46D94602940194CDF80040D7
:1029A000514904EB440001EBC008039098F814501F
:1029B0000A2F1DD0002D2AD0012D08D0022D06D2BD
:1029C0004AA34FF4927257A166A0FFF77DFC9EB117
:1029D0003168D8F8040081420ED1069820B1D8F8A9
:1029E00008100698814207D1204607B0BDE8F08F55
:1029F000002DE1D127460AE0012D16D0022D06D385
:102A0000B8F812000099884201D3A2460090641CD5
:102A100024B20A2CC4DB059881074FF0FF30E4D4C0
:102A20000A2F16D018DA3C463EE02F49039851F899
:102A300030000028B8F8120005D002998842E6D389
:102A4000A1460290E3E701998842E0D3A3460190B2
:102A5000DDE70599C907C8D05146BAF10A0F0EDA69
:102A60000C46214801EB440150F8310080B11FA30E
:102A70004FF4B77245A13BA0FFF726FC08E059468A
:102A8000BBF10A0F03DB4946B9F10A0FADDA0C4678
:102A90000A2C06DB15A34FF4C07242A131A0FFF748
:102AA00013FC204600F09EF80A2C06DB0FA34FF41F
:102AB000C2723CA12BA0FFF707FC0B4804EB4401BA
:102AC00000EBC105287D30B108A340F285123AA180
:102AD00024A0FFF7F9FB0EB130686860002068821F
:102AE0000698A86080E700009C6800202E2E2F4DDD
:102AF0006964646C6577617265732F546869726488
:102B00005F50617274792F4C7749502F7372632F25
:102B1000636F72652F697076342F657468617270A7
:102B20002E6300007374617465203D3D2045544858
:102B30004152505F53544154455F50454E44494EB5
:102B400047207C7C207374617465203E3D20455491
:102B5000484152505F53544154455F535441424C95
:102B600045000000417373657274696F6E20222501
:102B70007322206661696C6564206174206C696EE3
:102B80006520256420696E2025730A006172705FDC
:102B90007461626C655B695D2E71203D3D204E5510
:102BA0004C4C000069203C204152505F5441424C43
:102BB000455F53495A4500006172705F7461626CF1
:102BC000655B695D2E7374617465203D3D204554DD
:102BD000484152505F53544154455F454D505459FC
:102BE0000000000070B5074C00EB4005002654F8CB
:102BF000350018B103F0C0FC44F8356004EBC500A3
:102C0000067570BD9C6800202DE9F04786B00D0068
:102C100080460AD0D8F804404FF48079208848458F
:102C200044D12079062841D109E022A340F28B2229
:102C30002EA132A0FFF748FB06B0BDE8F08760790F
:102C4000042833D16088082830D1D4F80E100491BC
:102C5000A269686818B1824204D1012603E0002607
:102C6000374608E00026814201D1012700E0002715
:102C70000EB1012300E0022304F10802924604A9E8
:102C8000284600F0A3FBE08848450FD176B16FB924
:102C9000022204ABCDE90232291DCDE9001A05F16B
:102CA000220319465246284600F090FA404603F0A7
:102CB00063FCC1E72E2E2F4D6964646C65776172E9
:102CC00065732F54686972645F50617274792F4C18
:102CD0007749502F7372632F636F72652F69707617
:102CE000342F6574686172702E6300006E657469BC
:102CF0006620213D204E554C4C0000004173736509
:102D00007274696F6E2022257322206661696C657A
:102D100064206174206C696E6520256420696E20D2
:102D200025730A00FEB515460E46040006D143A3DE
:102D300040F21F324FA153A0FFF7C6FA36B93FA3A6
:102D40004FF4487259A14FA0FFF7BEFA35B93BA323
:102D500040F2213258A14BA0FFF7B6FA214628686D
:102D600000F08DFE08B1584B3FE02868C0F3031116
:102D70000E2925D0A168636800EA01020B409A423F
:102D800008D080B2A0F57E41A93903D0E068B0B385
:102D900004F10C054D4B4E481A7802EB420100EB52
:102DA000C1010F7D022F2ED38F68A7422BD12F6830
:102DB00049688F4227D13146204600F08BF8FEBD8E
:102DC00001208DF8040000208DF805005E208DF8AC
:102DD0000600687801AB00F07F008DF80700A87846
:102DE0008DF80800E8788DF809004FF40060009035
:102DF00004F122023146204600F0C8FBFEBDFFE789
:102E00006FF00300FAE7002202EB420100EBC10180
:102E10000F7D022F08D38F68A74205D12F6849681C
:102E20008F4201D11A70C6E7521CD2B20A2AEBD3E4
:102E300032462946204600F0D5F8DFE72E2E2F4DEA
:102E40006964646C6577617265732F546869726434
:102E50005F50617274792F4C7749502F7372632FD2
:102E6000636F72652F697076342F65746861727054
:102E70002E6300006E6574696620213D204E554C1E
:102E80004C000000417373657274696F6E202225D7
:102E90007322206661696C6564206174206C696EC0
:102EA0006520256420696E2025730A007120213D6C
:102EB000204E554C4C000000697061646472202102
:102EC0003D204E554C4C000064E60008D400002024
:102ED0009C6800202DE9F8430646154688461C48A4
:102EE00002EB450100EBC104207D022806D219A3A4
:102EF00040F2EF2225A131A0FFF7E6F9144A05EBD5
:102F00004501207D02EBC1050C35022813D1608AF2
:102F10000327B0F58E7F04D9211D304600F010FA4A
:102F200007E0B0F5877F06D32A46211D304600F022
:102F30000DFA00B927754FF4006000902B4606F19A
:102F400022024146304600F021FBBDE8F883000034
:102F50009C6800202E2E2F4D6964646C6577617229
:102F600065732F54686972645F50617274792F4C75
:102F70007749502F7372632F636F72652F69707674
:102F8000342F6574686172702E6300006172705F27
:102F90007461626C655B6172705F6964785D2E73E9
:102FA00074617465203E3D204554484152505F5342
:102FB000544154455F535441424C4500417373653D
:102FC0007274696F6E2022257322206661696C65B8
:102FD00064206174206C696E6520256420696E2010
:102FE00025730A002DE9FC5F8246223001900E46CF
:102FF000086814464FF0FF374FF0000B514600F0C1
:103000003EFD80B93068C0F303110E290BD056B1D4
:1030100048B1524601213046FFF7B4FC050005D502
:1030200040B2BDE8FC9F6FF00F00FAE77F2D06D39A
:1030300037A340F2C23244A147A0FFF745F905F09B
:10304000FF094F4909EB490801EBC805287D002815
:103050000ED0012808D0022806D22DA340F2CE328D
:1030600048A13DA0FFF730F9BBF1000F06D104E005
:1030700001202875C5F808A000E034B93146504653
:1030800000F05EF90746002CCBD0287D3C4E02288C
:103090000ED346494FF4006005F10C0381F800900F
:1030A000009021465046019A00F070FA07462DE044
:1030B00001282BD1254640F2F237688929898842B8
:1030C00007D1286828B112A33A4639A122A0FFF7F8
:1030D000FBF8287B400607D522464FF420710E20CE
:1030E00003F080F8044605E02D68002DE5D1204668
:1030F00003F006FC44B156F8380008B103F03CFA7E
:1031000046F83840002701E04FF0FF37384688E79F
:103110002E2E2F4D6964646C6577617265732F5430
:10312000686972645F50617274792F4C7749502FCF
:103130007372632F636F72652F697076342F6574B5
:10314000686172702E63000074797065206F766517
:1031500072666C6F77000000417373657274696FFB
:103160006E2022257322206661696C65642061747B
:10317000206C696E6520256420696E2025730A0025
:103180009C6800206172705F7461626C655B695D50
:103190002E7374617465203D3D2050454E44494E68
:1031A00047206F7220535441424C4500D400002008
:1031B0006E6F207061636B657420717565756573E2
:1031C00020616C6C6F776564210000002DE9FF4F72
:1031D00081B09846DDE90FA9DDF838B006004FF060
:1031E000000706D12CA34FF48B6239A13CA0FFF756
:1031F0006BF84FF420721C210E2002F0BBFD05007D
:1032000046D068891C2806D223A340F263423EA11F
:1032100033A0FFF759F86C68119801F001FEE080C7
:1032200096F82800062806D01BA340F26A424349BC
:103230002BA0FFF749F8D8F80010A160B8F80400F7
:10324000A081DAF80010C4F81210BAF80400E08285
:10325000DBF80000C4F80E00D9F80000A0614FF4BC
:10326000807020800820608006202071042060711A
:1032700040F60600DDE9022300902946304600F0C2
:1032800085F9284603F078F9384605B0BDE8F08F97
:103290004FF0FF30F9E700002E2E2F4D6964646C6B
:1032A0006577617265732F54686972645F506172EB
:1032B00074792F4C7749502F7372632F636F726547
:1032C0002F697076342F6574686172702E63000008
:1032D0006E6574696620213D204E554C4C000000FF
:1032E000417373657274696F6E20222573222066A4
:1032F00061696C6564206174206C696E6520256469
:1033000020696E2025730A00636865636B2074680A
:1033100061742066697273742070627566206361DF
:103320006E20686F6C6420737472756374206574AA
:10333000686172705F68647200000000C8E800088D
:10334000014A00F003B8000064E600087FB5064DAE
:10335000031D0124CDE90035CDE902141E331946C1
:10336000FFF734FF04B070BD6AE6000870B5164D73
:10337000002400BF04EB440005EBC002117DF1B155
:10338000508A401C80B25082B0F5967F0AD2012943
:1033900006D003290AD004290AD001290BD00EE057
:1033A000052808D32046FFF71DFC08E0042000E0B4
:1033B0000220107503E0111D9068FFF7C1FF641C27
:1033C0000A2CD7DB70BD00009C680020F8B50446CD
:1033D00090F828001F4616460D46062806D020A362
:1033E0004FF4D5722CA135A0FEF76EFF9DB1286871
:1033F00088B1214600F043FB68B92878C0F3031078
:103400000E2808D0224639462846FFF7BBFA002886
:1034100004DA40B2F8BD6FF00F00F8BD00EB4001D8
:103420003048022300EBC102137594603368D36007
:10343000B38813820023538250F8315075B140F89D
:1034400031304FF400600090334604F122022946E7
:10345000204600F09BF8284603F08EF80020F8BDC7
:103460002E2E2F4D6964646C6577617265732F54DD
:10347000686972645F50617274792F4C7749502F7C
:103480007372632F636F72652F697076342F657462
:10349000686172702E6300006E657469662D3E6807
:1034A00077616464725F6C656E203D3D20455448D1
:1034B0005F4857414444525F4C454E004173736529
:1034C0007274696F6E2022257322206661696C65B3
:1034D00064206174206C696E6520256420696E200B
:1034E00025730A009C6800202DE9F04104464089BC
:1034F0000E270D460E283CD9E07B18B995F82C0014
:10350000401CE073606801788689CA0714D00129DD
:1035100005D006221C49FCF7D6FE48B10CE04178E4
:1035200051B980785E2807D1607B40F0100002E03E
:10353000607B40F008006073082E03D0B6F5C16FC1
:1035400017D10DE095F82900000712D5394620461D
:1035500003F01CFA68B92946204600F0D7FB10E0BA
:1035600095F82900000704D53946204603F00EFAE5
:1035700018B1204603F000F803E029462046FFF783
:1035800043FB0020BDE8F08164E600082DE9F0412E
:1035900004461F4690460E46069801F041FC05463B
:1035A0000E21304602F082FB18B16FF00100BDE839
:1035B000F0817068858139680160B9888180D8F8A8
:1035C0000020C0F80620B8F80410418194F82800C3
:1035D000062806D006A34FF4997213A11FA0FEF788
:1035E00073FE31462046A269BDE8F0411047000055
:1035F0002E2E2F4D6964646C6577617265732F544C
:10360000686972645F50617274792F4C7749502FEA
:103610007372632F6E657469662F65746865726E68
:1036200065742E63000000006E657469662D3E6847
:1036300077616464725F6C656E206D75737420626F
:1036400065203620666F722065746865726E6574D9
:103650005F6F7574707574210000000041737365AD
:103660007274696F6E2022257322206661696C6511
:1036700064206174206C696E6520256420696E2069
:1036800025730A0010B5040006D10BA340F21622E0
:103690000EA112A0FEF718FE732084F82A007420F1
:1036A00084F82B00174860611748A061204601F09C
:1036B0007DFA002010BD00002E2E2F5372632F655F
:1036C000746865726E657469662E63006E657469F0
:1036D0006620213D204E554C4C000000417373651F
:1036E0007274696F6E2022257322206661696C6591
:1036F00064206174206C696E6520256420696E20E9
:1037000025730A00252D0008394D000870B50546BF
:1037100001F0B2FA040009D02A692946904700282E
:1037200004D02046BDE8704002F026BF70BD000006
:1037300013B51423012269460248FEF7CFF800981A
:103740001CBD0000E80100200A46032100F0F4B887
:103750002DE9FE4F8A4644490446D1F8088098F87E
:1037600000000007850E142D79D36089042876D3D4
:1037700060680078002872D0082870D1486901F18B
:103780001407C0F303120E2A69D08946096800F0B5
:1037900076F9002863D12089082860D305F10E014D
:1037A0000E46204602F082FA002830D020894119C6
:1037B00089B2884253D84FF420720E2002F0DAFA10
:1037C00006004CD0718905F10800814216D32A46C3
:1037D00041467068FCF73EFD2946304603F0D6F8B6
:1037E000002806D021A3B6222EA13CA0FEF76CFD36
:1037F00004E02146304602F043FD18B1304602F0A5
:10380000BBFE2CE0204602F0B7FE34460CE0314609
:10381000204603F0BBF8002806D014A3C72239A124
:103820002EA0FEF751FD1AE029462046666802F0F8
:103830003DFAA0B960683968FF22C160D9F810105C
:1038400001610021317071800272418101228DE895
:1038500006040A46FF233946204600F027FB20468F
:10386000BDE8FE4F02F088BE603300202E2E2F4DA3
:103870006964646C6577617265732F5468697264FA
:103880005F50617274792F4C7749502F7372632F98
:10389000636F72652F697076342F69636D702E6364
:1038A0000000000069636D705F696E7075743A2086
:1038B0006D6F76696E6720722D3E7061796C6F61F5
:1038C0006420746F2069636D70206865616465723F
:1038D000206661696C65640A0000000041737365CD
:1038E0007274696F6E2022257322206661696C658F
:1038F00064206174206C696E6520256420696E20E7
:1039000025730A0069636D705F696E7075743A2083
:10391000726573746F72696E67206F726967696E22
:10392000616C20702D3E7061796C6F6164206661FE
:10393000696C65640A0000002DE9FF4791468846DE
:1039400006464FF420722421222002F013FA0500CB
:1039500031D06889242806D218A34FF4B47225A167
:103960002FA0FEF7B1FC6C6877681C2284F80080F9
:1039700084F801904FF00008A4F80480A4F80680B1
:10398000686871680830FCF765FCF868039003A864
:1039900000F09CFC60B1A4F802800122CDF8008008
:1039A000CDE90120FF2303AA0021284600F07EFA7A
:1039B000284602F0E1FDBDE8FF8700002E2E2F4DC6
:1039C0006964646C6577617265732F5468697264A9
:1039D0005F50617274792F4C7749502F7372632F47
:1039E000636F72652F697076342F69636D702E6313
:1039F00000000000636865636B2074686174206672
:103A00006972737420706275662063616E20686FDE
:103A10006C642069636D70206D6573736167650008
:103A2000417373657274696F6E202225732220665C
:103A300061696C6564206174206C696E6520256421
:103A400020696E2025730A000A460B21FFF774BF18
:103A50002DE9F0410F46121D064691B24FF4207237
:103A6000362002F087F9040006D0656870BA288015
:103A7000384601F0D5F968802046BDE8F081421C47
:103A800012D088B191F8292092070BD54B68834258
:103A900008D0896800EA01020B409A4202D1014332
:103AA000491C01D000207047012070472DE9F74FD5
:103AB00088B00446099800251426008CAF1F1438DE
:103AC000C11700EB5170C0F3CF00039060680690FF
:103AD000017801F00F01052903D038460BB0BDE88D
:103AE000F08F6189142907D25BA34FF43F7269A15B
:103AF0006FA0FEF7E9FBF0E7C08801F091F9C0F391
:103B00000C0100F4005002910790208914381FFA2C
:103B100080F88EE003984FF6FF7101EAC00041463D
:103B2000404500D9084604904FF4207214210E201D
:103B300002F020F95FEA000A7ED0BAF80A001428E1
:103B400006D245A34FF4497263A159A0FEF7BCFB0E
:103B50001422DAF804000699FCF77CFBDAF804007A
:103B60000590049F35E06089811B8DB2B04206D27A
:103B700039A340F22D3260A14DA0FEF7A5FBAF4264
:103B800000D23D461DB3052001F05EFD5FEA00094D
:103B900057D060684B463044CDE9000541222946A4
:103BA000002002F059FA5FEA000B50D0204602F0E4
:103BB000A7FE5549C9E904145946504602F068FA6F
:103BC000781B07043F0C06D000262468CBE7246846
:103BD0000026002FC7D1701986B20998008C1438BE
:103BE00040450298C0F30C0001DB079909B140F48D
:103BF000005001F015F90599C8800498143080B27E
:103C000001F00EF905994880059800214181099835
:103C100051460A9A43699847504602F0ADFC049910
:103C2000A8EB01001FFA80F8DDE90201084480B228
:103C30000290B8F1000F00E006E07FF46BAF0020C7
:103C40004CE7504602F098FC4FF0FF3046E74846FC
:103C500000F074FCF5E700002E2E2F4D6964646CB3
:103C60006577617265732F54686972645F50617221
:103C700074792F4C7749502F7372632F636F72657D
:103C80002F697076342F6970345F667261672E63B6
:103C9000000000006970345F6672616728293A206D
:103CA0007062756620746F6F2073686F72740000A5
:103CB000417373657274696F6E20222573222066CA
:103CC00061696C6564206174206C696E652025648F
:103CD00020696E2025730A0074686973206E65651B
:103CE00064732061207062756620696E206F6E6556
:103CF0002070696563652100702D3E6C656E203E05
:103D00003D20706F66660000154B00082DE9F047F6
:103D1000456807460E4628780421B1EB101F03D0F2
:103D2000384602F029FC77E000074FEA906868887F
:103D300001F076F804463889A04203D92146384676
:103D400002F044FD79894145EAD33889A042E7D39E
:103D5000B8F1140FE4D32969DFF81C91C1F3031003
:103D60000E28C9F81410EA68C9F8102005D03046AA
:103D700000F086F850B1344619E096F82900C007E3
:103D800002D070680028F6D1002410E099F81400E1
:103D900000247F280BD03948046806E0B44203D0E1
:103DA000204600F06DF810B92468002CF6D1314699
:103DB000D9F81000FFF763FE0028B1D199F8100080
:103DC000C0F303100E28ABD0002CA9D0E88830F047
:103DD000C00005D0384600F035F907001CD07D68DA
:103DE000C9F80850C9E90046297838460907890EFC
:103DF000A9F80C10414602F0C9FD687A012818D0D4
:103E0000062811D011280AD04D462146D9F81400B1
:103E1000FFF735FE90B11EE00020BDE8F087314687
:103E2000384609F07BFF19E03146384604F084FD3E
:103E300014E031463846FFF78BFC0FE0287DC0F3D5
:103E400003100E2807D04146384602F05AFC0221E2
:103E50003846FFF779FC384602F08EFB0021C9F89E
:103E60000010C9F80410C9F80810A9F80C10C9F816
:103E70001010C9F81410CFE7603300207000002044
:103E800010B590F82910C9070CD0416851B1064A05
:103E900052698A4204D001461046FFF7F0FD08B18E
:103EA000012010BD002010BD60330020FEB5DDE90B
:103EB0000954089E1AB109B10F6807B9211D00966F
:103EC000CDE9015400F002F8FEBD00002DE9F84FE5
:103ED0000546DDE90BA8807BDDF828B01F461646B5
:103EE0008946012806D02FA34FF455723AA13DA070
:103EF000FEF7EAF96FF00104002E35D014212846B0
:103F000001F0D4FE002832D168896C68142806D2EA
:103F100024A34FF462723DA132A0FEF7D5F92772B7
:103F200084F809A0306820614520207084F801B031
:103F3000288900F075FF414F60804FF0000AA4F817
:103F400006A0388800F06CFFA0803888401C3880BC
:103F5000B9F1000F05D0D9F80000E060A4F80AA07C
:103F60000CE037480068F8E76889142802D2204638
:103F7000BDE8F88F68686E4600690090B8F82000C8
:103F800040B12989814205D9324641462846FFF78A
:103F90008DFDEDE7D8F81430404632462946984763
:103FA000E6E700002E2E2F4D6964646C6577617220
:103FB00065732F54686972645F50617274792F4C15
:103FC0007749502F7372632F636F72652F69707614
:103FD000342F6970342E6300702D3E726566203D6B
:103FE0003D203100417373657274696F6E20222524
:103FF0007322206661696C6564206174206C696E4F
:104000006520256420696E2025730A006368656356
:104010006B207468617420666972737420706275B5
:10402000662063616E20686F6C64207374727563C0
:10403000742069705F68647200000000D600002080
:104040006CE700082DE9F05F45688346287800F0AA
:104050000F0005287DD1E88800F0E2FEC004070CBF
:10406000688800F0DDFE29780907890E814270D842
:10407000401A1FFA80F8584602F0ABF86A4C064620
:10408000208830440A2809D93146284600F0ECFC43
:1040900000285ED0208830440A28E8D8A146646809
:1040A0004FF0000A0CE06069E968884207D1A06916
:1040B0002969884203D1A089A988884203D024684D
:1040C000002CF0D106E02CB1E88800F0A9FEC00475
:1040D0001BD025E0042001F0B7FA04000AD13146D4
:1040E000284600F0C1FCB04233DB042001F0ACFAFA
:1040F0000400CED02021FCF7D4F80F20E077D9F8C7
:1041000004102160C9F8044004E0E08900F088FE52
:10411000C00405D01422294604F10800FCF79AF8DF
:10412000A87940F340156D1C08D007EB080080B259
:10413000B84263D34FF6EB7188425FD82A4659469E
:10414000204600F043FA411C58D0B9F80020324410
:1041500000E064E0A9F8002035B107EB0801A18375
:10416000A17F41F00101A177012845D1A08B142244
:10417000143087B2606804F10801456828462E684B
:10418000FCF768F8384600F04BFE6880A5F806A0FA
:10419000A5F80AA0656809E014213046776802F0A6
:1041A000F5FB3146284601F073FF3E68002EF3D13F
:1041B000D9F804104E468C4205D1002105E008686C
:1041C000A04202D001460029F9D1204600F022FB8E
:1041D000284601F0FEFF04463088A04206D213A311
:1041E00040F29B2220A127A0FEF76EF83088001B2A
:1041F00030802846BDE8F09F0020FBE7606870B97A
:10420000D9F80400844206D008A340F2AB2227A1CB
:104210001CA0FEF759F80021204600F0FBFA584692
:1042200002F0AAF9E8E70000D80000202E2E2F4D5A
:104230006964646C6577617265732F546869726430
:104240005F50617274792F4C7749502F7372632FCE
:10425000636F72652F697076342F6970345F667290
:1042600061672E630000000069705F72656173739F
:104270005F70627566636F756E74203E3D20636C7F
:10428000656E0000417373657274696F6E2022253C
:104290007322206661696C6564206174206C696EAC
:1042A0006520256420696E2025730A006E6F7420D6
:1042B0006669727374616C74686F756768206A757B
:1042C000737420656E7175657565640070B504461C
:1042D000134813E090F82910CA070FD04A070DD5EC
:1042E00043685BB182682568134005EA02069E4276
:1042F00014D0890702D4C1688D420FD0006800280D
:10430000E8D10848006840B190F82910CA0704D0E5
:10431000490702D54168002900D1002070BD000086
:1043200070000020740000202DE9FF4188460646F9
:104330006F460578FBF778FF03461A68505D202822
:1043400064D100240A20302D06D116F8015F782DA3
:1043500008D0582D06D00820515D202904D01028FF
:1043600006D016E0102011E0303D04FB00540DE0B3
:1043700081EA810C5FEA0C6C0BD5090701D561213C
:1043800000E04121691A0A3141EA041416F8015F7C
:10439000E2E72E2D10D01DB11868405DC00736D061
:1043A0006846381A012101EBA00005283CD2DFE85D
:1043B00000F02D410A13220003A8874226D210C71D
:1043C00016F8015FB9E7B4F1807F1FD20098FF288B
:1043D0001CD844EA00642DE0B4F5803F16D2009862
:1043E000FF2813D80198FF2810D8009801990006DB
:1043F00040EA014016E0FF2C08D80098FF2805D8B5
:104400000198FF2802D80298FF2803D9002004B0A1
:10441000BDE8F08100980199000640EA0140029948
:1044200040EA0120044305E007A3F92215A118A0E2
:10443000FDF74AFFB8F1000F04D0204600F0EEFC73
:10444000C8F800000120E2E72E2E2F4D6964646C4D
:104450006577617265732F54686972645F50617229
:1044600074792F4C7749502F7372632F636F726585
:104470002F697076342F6970345F616464722E63C3
:1044800000000000756E68616E646C656400000079
:10449000417373657274696F6E20222573222066E2
:1044A00061696C6564206174206C696E65202564A7
:1044B00020696E2025730A001022014900F002B81D
:1044C0008C6900202DE9FC430023006889466C4676
:1044D0001E464FF00A0C01AD0090002094F80080B9
:1044E000B8FBFCF70CFB1787B8FBFCF884F80080DE
:1044F00030372F54401CC0B2B8F1000FEED106E0A7
:104500001F465B1C974209DA2F5C01F8017B401EB5
:10451000C0B2F5D218465B1C904202DB0020BDE819
:10452000FC832E20761CF6B2641C01F8010B042ECD
:10453000D3D3002001F8010C4846F0E710B5040081
:1045400006D106A34FF4317213A116A0FDF7BCFEED
:104550002146BDE81040052001F002B82E2E2F4D57
:104560006964646C6577617265732F5468697264FD
:104570005F50617274792F4C7749502F7372632F9B
:10458000636F72652F697076342F6970345F66725D
:1045900061672E63000000007020213D204E554CC5
:1045A0004C000000417373657274696F6E202225A0
:1045B0007322206661696C6564206174206C696E89
:1045C0006520256420696E2025730A002DE9F05FBF
:1045D0004C68064693460F4600254FF00108608858
:1045E00000F01EFC21784FF0FF3A0907890E814246
:1045F00031D8A0EB0109E08800F012FCC0047C680F
:10460000010C0020206001EB090083B2A180E3804F
:104610008B4220D3726829E05068B0F804C061452D
:1046200015D222606DB1B5F806C0614513D38088FC
:10463000834210D82F60A088844506D04FF0000830
:1046400003E08088834206D877608AB12EE002D0EA
:10465000C288914202D25046BDE8F09F25B1EA8857
:10466000624501D04FF0000802680546002AD3D108
:1046700095B1E888A188884206D92AA34FF4DB7255
:1046800037A13FA0FDF720FE2F60E888A18888426F
:104690000CD04FF0000809E0706830B121A34FF44E
:1046A000DF7241A136A0FDF70FFE7760BBF1000F6E
:1046B00002D1B07FC007CFD0B8F1000F30D0726800
:1046C000002A2DD050688088002829D121682046F2
:1046D00029B14C68C088A1888842F7D020E0B8F1A1
:1046E000000F1DD032B90FA340F2DF123CA124A06D
:1046F000FDF7EAFD70684068A04206D109A34FF4B7
:10470000F07237A11EA0FDF7DFFD206830B105A3D0
:104710004FF4F17236A11AA0FDF7D6FD01209BE7F8
:10472000002099E72E2E2F4D6964646C65776172C5
:1047300065732F54686972645F50617274792F4C8D
:104740007749502F7372632F636F72652F6970768C
:10475000342F6970345F667261672E630000000059
:10476000636865636B20667261676D656E74732044
:10477000646F6E2774206F7665726C617000000044
:10478000417373657274696F6E20222573222066EF
:1047900061696C6564206174206C696E65202564B4
:1047A00020696E2025730A006E6F2070726576692D
:1047B0006F757320667261676D656E742C20746806
:1047C0006973206D75737420626520746865206656
:1047D0006972737420667261676D656E7421000082
:1047E00073616E69747920636865636B0000000013
:1047F00076616C69646174655F646174616772613C
:104800006D3A6E6578745F70627566213D4E554CE9
:104810004C00000070B504460C480D464168A142AA
:1048200002D1216841600AE0002D06D108A340F2C0
:10483000451216A11CA0FDF747FD206828602146FF
:10484000BDE87040042000F08BBE0000D8000020BE
:104850002E2E2F4D6964646C6577617265732F54D9
:10486000686972645F50617274792F4C7749502F78
:104870007372632F636F72652F697076342F69705E
:10488000345F667261672E630000000073616E69B9
:10489000747920636865636B206C696E6B65642056
:1048A0006C69737400000000417373657274696F02
:1048B0006E2022257322206661696C656420617414
:1048C000206C696E6520256420696E2025730A00BE
:1048D0002DE9F047054600240F46A94205D12FA334
:1048E000AB223DA13FA0FDF7EFFC002F08D03868B8
:1048F000A84205D029A3AD2244A13AA0FDF7E4FCCB
:104900006E684FF480387068818800291AD1006879
:104910006860142205F108017068FBF79BFC012117
:104920003046FFF791F8304601F053FC044640450D
:1049300005D31AA3BC223AA12AA0FDF7C5FC304634
:1049400001F01AFE6E6812E07068B14606684846CB
:1049500001F03FFC0444444505D310A3CC2230A110
:1049600020A0FDF7B1FCA4B2484601F005FE002EE0
:10497000EAD139462846FFF74DFF314D2888A0423D
:1049800005D206A3D2222FA116A0FDF79DFC2888F0
:10499000001B28802046BDE8F08700002E2E2F4DFA
:1049A0006964646C6577617265732F5468697264B9
:1049B0005F50617274792F4C7749502F7372632F57
:1049C000636F72652F697076342F6970345F667219
:1049D00061672E63000000007072657620213D2023
:1049E00069707200417373657274696F6E2022255D
:1049F0007322206661696C6564206174206C696E45
:104A00006520256420696E2025730A007072657622
:104A10002D3E6E657874203D3D2069707200000067
:104A200070627566735F6672656564202B20636CC7
:104A3000656E203C3D2030786666666600000000AA
:104A4000D800002069705F72656173735F70627572
:104A500066636F756E74203E3D2070627566735F8D
:104A600066726565640000002DE9F0471D4F8946B8
:104A7000064600240022134611461546786822E0B7
:104A8000D0F814C0D6F80C80C4450BD1D0F818C0AB
:104A9000D6F81080C44505D1B0F80CC0B6F8048033
:104AA000C44509D06D1C2AB190F81FC092F81F8030
:104AB000C44501D802461946D0F800C0BCF1000F29
:104AC00000D0034660460028DAD11AB11046FFF73D
:104AD000FFFE04444C4501DA012DCBDC2046BDE845
:104AE000F0870000D800002070B509480025446810
:104AF0000BE0E07F20B1401EE0772546246804E00B
:104B0000204624682946FFF7E3FE002CF1D170BD52
:104B1000D800002010B5040006D108A340F2CE2230
:104B200015A118A0FDF7D0FB606908B101F024FDC4
:104B30002046BDE81040FFF701BD00002E2E2F4D8E
:104B40006964646C6577617265732F546869726417
:104B50005F50617274792F4C7749502F7372632FB5
:104B6000636F72652F697076342F6970345F667277
:104B700061672E630000000070637220213D204EAB
:104B8000554C4C00417373657274696F6E20222519
:104B90007322206661696C6564206174206C696EA3
:104BA0006520256420696E2025730A007CB52F4D91
:104BB00004462D48286001206860002028828DF876
:104BC000000080218DF80110E1218DF802108DF890
:104BD00004008DF803008DF805006946C5E905104D
:104BE000E8614FF4000028622846FBF7AFFE28B9C1
:104BF00094F8290040F0040084F8290004231C4A9A
:104C00001C491A48FBF728FE1A4A04238032A2F5F1
:104C100080711648FBF7E6FD062084F828006869D5
:104C2000007884F822006869407884F82300686975
:104C3000807884F824006869C07884F82500686961
:104C4000007984F826006869407984F8270040F2EA
:104C5000DC5024F8200F607A40F00A0060720348AC
:104C6000FBF7FAFF7CBD000000800240F832002014
:104C7000281B0020D80200202DE9F84F0020044610
:104C800000902C48FBF724FE10B10020BDE8F88FFF
:104C90002848818FD0F840900904090C2FD04FF498
:104CA000C172002001F066F8009040B32148009DD9
:104CB00040F2F45BD0F830806E89002710E000BF2E
:104CC000A4F2F4525242FBF7C5FAD8F80C00804621
:104CD000D0F808903F1BAAF2F456002407F2F457CC
:104CE000686806EB040ADA4509EB04013844E7D8A2
:104CF0003246FBF7AFFA2D683444002DDCD10D4865
:104D00000022016B05E00B6843F000430B60C968AB
:104D1000521C836B9342F6D800218163006800F532
:104D200080504269120602D580224261816000985B
:104D3000ACE70000F83200202DE9F05F27480D466F
:104D4000C66A002083460446D6F808A031E03068E1
:104D500000280CDB6F894FF0000818E0A4F2F45231
:104D60005242FBF777FAF6683068002802DA6FF0F3
:104D7000070025E0D6F808A0A8EB040000F2F458DC
:104D8000ABEB0400A9F2F45700F2F45B002407EB4C
:104D9000040940F2F451894569680AEB0400414472
:104DA000DCD83A46FBF756FA0BEB07002D683C447B
:104DB0008346002DCBD101460848FBF78FFF00202A
:104DC0000649096801F580514A69920603D52022F7
:104DD0004A6100224A60BDE8F09F0000F8320020DE
:104DE00010B504464068804702F0EEF9094A216890
:104DF00052688B181A1AB2F1004F03D308442246A6
:104E0000054902E0044922461846BDE8104002F078
:104E10003FBA0000C0000020E14D000800BA704712
:104E200040BA704710B500F077F900F0E7FB00F0EA
:104E3000FDFD08F067FF03F073FDBDE8104002F0D0
:104E4000A3BA0000FCF7A4F9FCF776FFFCF7A4FD79
:104E5000FCF770FEFCF7ECFD01211848FCF780F927
:104E600078B117A0FDF730FA20A0FDF72DFA03F076
:104E700069F808F0B7FCFDF783F900BFFCF750FEB6
:104E8000FCE71DA0FDF720FA27A0FDF71DFA2D4C29
:104E900020682D490840B0F1005F03D02BA0FDF73A
:104EA00013FAFEE72FA0FDF70FFA6068314948605A
:104EB0000860216881F308888047FEE7000002400F
:104EC000200D0A202D202D202D202D20C4FAD2D1F6
:104ED000BDF8C8EBC9FDBCB6C4A3CABD21202D20B6
:104EE0002D202D202D200D0A00000000537461722A
:104EF00074200D0A00000000C4FACEB4B0B4CFC2D2
:104F0000C9FDBCB6B0B4BCFC4B45595F555021C976
:104F1000E8B1B8BDABB3A2CAD4D5FDB3A3D4CBD04E
:104F2000D021200D0A0000002D202D202D202D2025
:104F3000D5FDD4DACCF8D7AA202D202D202D202D78
:104F4000200D0A00000002080000FE2F464C4153CD
:104F500048D6D0C3BBD3D0617070B3CCD0F221207F
:104F60000D0A0000D5FDB3A3D4CBD0D0D6D02120DC
:104F70000D0A0000100000202DE9F04100284DD05E
:104F8000810704D026A340F2732231A132E0394DCB
:104F9000A0F1080429688C4203D36A680C3090425F
:104FA00004D91FA340F27F2233A123E020790028F7
:104FB00025D0601A86B2208801F03CFE0746608842
:104FC00001F038FE21884FF4C863002299420DD8C1
:104FD000618899420AD8B14202D00088B04205D116
:104FE0006868874210D07888B0420DD00CA340F298
:104FF000952228A1BDE8F04133A0FDF765B908A3CB
:105000004FF423723AA1F5E72271A868844200D2D6
:10501000AC602046BDE8F04101F03CBDBDE8F08148
:105020002E2E2F4D6964646C6577617265732F5401
:10503000686972645F50617274792F4C7749502FA0
:105040007372632F636F72652F6D656D2E63000041
:105050006D656D5F667265653A2073616E6974791E
:1050600020636865636B20616C69676E6D656E7443
:10507000000000003C0000206D656D5F6672656594
:105080003A20696C6C6567616C206D656D6F727933
:10509000000000006D656D5F667265653A20696CA1
:1050A0006C6567616C206D656D6F72793A206E6F0B
:1050B0006E2D6C696E6B65643A20646F75626C6509
:1050C0002066726565000000417373657274696FD4
:1050D0006E2022257322206661696C6564206174EC
:1050E000206C696E6520256420696E2025730A0096
:1050F0006D656D5F667265653A20696C6C656761A8
:105100006C206D656D6F72793A20646F75626C65A5
:10511000206672656500000070B50B480B4C20F0EE
:1051200003014FF4C86521600D800020488008719C
:10513000284601F07FFD01216060017105804580F6
:105140002068A06070BD00007B3300203C00002080
:105150002DE9F04700286FD0C41C4FF6FC710C40BD
:105160004FF4C8690C2C01D20C2401E04C457CD8CA
:1051700084427AD34148C4F5C867824601890288CF
:10518000891A8EB276E0304601F054FD054600796A
:1051900000286CD12888801B0838A04267D3288853
:1051A00004F11401801B08384FF0010888421DD318
:1051B0003019083087B24F4506D131A340F287320B
:1051C0003BA140A0FDF780F8384601F033FD0021F7
:1051D00001712988018046802F8085F8048000882D
:1051E000484505D001F026FD478001E085F80480A0
:1051F000DAF808005646854203D014E0008801F032
:1052000019FD017911B171688842F7D1B0607168F8
:10521000884208D0007930B119A340F2B53233A1E9
:1052200028A0FDF751F8281971680830884208D97C
:1052300013A340F2B93200E015E033A121A0FDF73D
:1052400043F8A8070DD00EA340F2BB323AA11DA02F
:10525000FDF73AF80AA340F2BD3243A119A0FDF7C9
:1052600033F805F10800BDE8F08705E0FFE7DAF85C
:105270000000865BB74286D80020F4E73C0000209F
:105280002E2E2F4D6964646C6577617265732F549F
:10529000686972645F50617274792F4C7749502F3E
:1052A0007372632F636F72652F6D656D2E630000DF
:1052B000696E76616C6964206E65787420707472B2
:1052C00000000000417373657274696F6E202225BF
:1052D0007322206661696C6564206174206C696E5C
:1052E0006520256420696E2025730A006D656D5F59
:1052F0006D616C6C6F633A20216C667265652D3E42
:1053000075736564000000006D656D5F6D616C6CA8
:105310006F633A20616C6C6F6361746564206D65C6
:105320006D6F7279206E6F742061626F7665207286
:10533000616D5F656E642E006D656D5F6D616C6C97
:105340006F633A20616C6C6F6361746564206D6596
:105350006D6F72792070726F7065726C7920616CFC
:1053600069676E65642E00006D656D5F6D616C6CC4
:105370006F633A2073616E69747920636865636B4B
:1053800020616C69676E6D656E7400000249098862
:10539000401A80B2704700003C0000202DE9F05F09
:1053A0000646CC1C4FF6FC7004404FF4C86A0C2C27
:1053B00001D20C2401E054452AD88C4228D33E4F18
:1053C0003868864202D37868864206D33BA340F20F
:1053D000D12246A14BA0FCF777FF3868864249D31B
:1053E00079688E4246D2A6F10805BB46281A87B2D4
:1053F0002888C01B08381FFA80F94C4506D92FA30E
:105400004FF4397249A13FA0FCF75EFF4C4503D928
:105410004FF00000BDE8F09F2CD0288801F00AFC76
:1054200080460079002827D004F11400484521D88F
:105430003819083084B22888504506D11FA340F29D
:10544000163242A12FA0FCF73FFF204601F0F2FBED
:10545000DBF80820904201D2CBF80800002101714E
:105460002988018047802C800088504502D001F0B7
:10547000E1FB44803046CDE72888504506D10FA394
:1054800040F2F52231A11FA0FCF71EFF38190830A9
:10549000DBF80810B8F8009084B2414504D12046EA
:1054A00001F0C8FBCBF80800204601F0C3FB002147
:1054B0000171A0F80090D5E73C0000202E2E2F4D62
:1054C0006964646C6577617265732F54686972648E
:1054D0005F50617274792F4C7749502F7372632F2C
:1054E000636F72652F6D656D2E6300006D656D5F76
:1054F0007472696D3A206C6567616C206D656D6FC3
:1055000072790000417373657274696F6E20222591
:105510007322206661696C6564206174206C696E19
:105520006520256420696E2025730A006D656D5F16
:105530007472696D2063616E206F6E6C7920736880
:1055400072696E6B206D656D6F727900696E766140
:105550006C6964206E6578742070747200000000BD
:10556000092806D307A34FF4D57212A118A0FCF79F
:10557000ABBE002904D0204A52F82000FDF74CB9F8
:10558000704700002E2E2F4D6964646C6577617240
:1055900065732F54686972645F50617274792F4C1F
:1055A0007749502F7372632F636F72652F6D656D2E
:1055B000702E63006D656D705F667265653A20746C
:1055C000797065203C204D454D505F4D415800009D
:1055D000417373657274696F6E2022257322206691
:1055E00061696C6564206174206C696E6520256456
:1055F00020696E2025730A00DCE6000830B5064DF0
:10560000002400BF55F8240000F008F8641CA4B280
:10561000092CF7D330BD0000DCE6000882680021C9
:1056200011604168C91C21F00301002207E0836872
:10563000521C1B680B6083681960038819444388F7
:105640009342F4DC7047000010B5092808D308A382
:1056500040F2571212A11AA0FCF736FE002010BD2E
:10566000214951F82000BDE81040FDF723B90000A2
:105670002E2E2F4D6964646C6577617265732F54AB
:10568000686972645F50617274792F4C7749502F4A
:105690007372632F636F72652F6D656D702E63007B
:1056A0006D656D705F6D616C6C6F633A20747970BD
:1056B00065203C204D454D505F4D41580000000095
:1056C000417373657274696F6E20222573222066A0
:1056D00061696C6564206174206C696E6520256465
:1056E00020696E2025730A00DCE6000828B1012835
:1056F00005D0022805D00020704703A0704704A001
:10570000704706A0704700006F6374657400000066
:105710006E657461736369690000000062696E619F
:10572000727900002DE9F0470400DDE90970089D59
:1057300003D03FB100290DD00DE035A34FF4957291
:1057400040A103E032A340F22B1245A14DA0FCF78B
:10575000BBFD1CE0554902B9544A03B9534B00261E
:105760006660A660DFF848C1C4F814C0E66026840D
:1057700084F82960E5614F4D95F800C084F82CC08D
:105780002061204600F0B8F92046B84710B100204B
:10579000BDE8F087B2464FF4C7784FF4C87900BF30
:1057A00094F82C00FF2801D184F82CA000276E6803
:1057B0001EE0A64205D116A342463FA131A0FCF748
:1057C00083FD7F1CFF2F05DD11A34A463FA12DA0BD
:1057D000FCF77AFD96F82C0094F82C10884206D13C
:1057E000C8B2401C84F82C00002ED9D102E03668E3
:1057F000002EDED194F82C00FE2806D0401C287024
:105800006868206020466C60C2E785F800A0F7E772
:105810002E2E2F4D6964646C6577617265732F5409
:10582000686972645F50617274792F4C7749502FA8
:105830007372632F636F72652F6E657469662E6372
:10584000000000006E657469665F6164643A2069F7
:105850006E76616C6964206E657469660000000094
:105860006E657469665F6164643A204E6F20696E8C
:1058700069742066756E6374696F6E2067697665FA
:105880006E000000417373657274696F6E2022258B
:105890007322206661696C6564206174206C696E96
:1058A0006520256420696E2025730A006CE70008D6
:1058B000F15A00086C0000206E6574696620616C06
:1058C000726561647920616464656400746F6F203F
:1058D0006D616E79206E65746966732C206D6178D8
:1058E0002E20737570706F72746564206E756D62B2
:1058F00065722069732032353500000070B50C46A2
:10590000054603F057FE21462846BDE8704008F0E2
:105910007FBB0A68C3689A4204D001B90022C26002
:105920000120704700207047F8B515460C00064668
:1059300006D113A34FF4E7721EA122A0FCF7C4FC0A
:1059400035B90FA340F2CF121AA11EA0FCF7BCFC80
:1059500021687068814210D000912860694628460D
:10596000FFF7CCFF3CB1206870600121304600F0A9
:105970005FF80120F8BD0020F6E70020F8BD000028
:105980002E2E2F4D6964646C6577617265732F5498
:10599000686972645F50617274792F4C7749502F37
:1059A0007372632F636F72652F6E657469662E6301
:1059B00000000000696E76616C696420706F696E2A
:1059C00074657200417373657274696F6E2022256D
:1059D0007322206661696C6564206174206C696E55
:1059E0006520256420696E2025730A000A68836893
:1059F0009A4204D001B90022826001207047002041
:105A00007047000001000CD00748406807E000BF65
:105A100090F82C20521CD2B28A4203D00068002891
:105A2000F6D10020704700006C0000207047000095
:105A300070B50D46040006D10DA34FF45D7219A197
:105A400021A0FCF741FC94F8290041070ED5C107BD
:105A50000CD0E9070AD06168002907D0000705D5F6
:105A6000211D2046BDE87040FDF76ABC70BD0000F6
:105A70002E2E2F4D6964646C6577617265732F54A7
:105A8000686972645F50617274792F4C7749502F46
:105A90007372632F636F72652F6E657469662E6310
:105AA000000000006E657469665F69737375655FF9
:105AB0007265706F7274733A20696E76616C696496
:105AC000206E657469660000417373657274696F56
:105AD0006E2022257322206661696C6564206174E2
